:020000040000FA
:100000000C9462000C948A000C948A000C948A0070
:100010000C948A000C948A000C948A000C948A0038
:100020000C94D2080C948A000C948A000C948A00D8
:100030000C948A000C948A000C948A000C948A0018
:100040000C9488080C948A000C9456080C94300880
:100050000C948A000C948A000C948A000C948A00F8
:100060000C948A000C948A00000000080002010031
:100070000003040700000000000000000000000072
:10008000250028002B0000000000240027002A0083
:1000900000000000230026002900040404040404D6
:1000A0000404020202020202030303030303010227
:1000B00004081020408001020408102001020408F6
:1000C0001020850911241FBECFEFD8E0DEBFCDBFC1
:1000D00024E0AAEEB1E001C01D92A732B207E1F719
:1000E00011E0A0E0B1E0E4EDFBE102C005900D926B
:1000F000AA3EB107D9F710E0C2E6D0E004C02197CC
:10010000FE010E94E20DC136D107C9F70E94450ADF
:100110000C94E80D0C940000AEEAB2E011968C93BA
:10012000119790E0FC01E255FF4FE4911496EC9397
:100130001497FC01E656FF4FE491F0E0EE0FFF1F2D
:10014000E057FF4F8591949113969C938E9312974D
:1001500008950F931F93CF93DF93E091F403F091F1
:10016000F50340911002808510E0481708F064C044
:10017000142F117000910F0201114FC0842F90E0D5
:10018000880F991FE80FF91F0184F285E02D2CEEEE
:100190003FEF112311F024E130E0C0910D02D09126
:1001A0000E022C0F3D1FC90163E470E00E94CE0DCA
:1001B000E617F70760F0C90168E270E00E94CE0D13
:1001C0006F5F7F4F81E090E06E177F0710F52C0F77
:1001D0003D1FC90163E470E00E94CE0DE617F707EA
:1001E00050F0C90168E270E00E94CE0D6F5F7F4F52
:1001F0006E177F0760F42C0F3D1FC90163E470E0A8
:100200000E94CE0DE617F707E8F41FEF15C082E055
:1002100090E090930C0280930B020F5F00930F020B
:1002200080910B0290910C020817190628F0109289
:100230000F024F5F40931002812FDF91CF911F91EA
:100240000F910895C90168E270E00E94CE0D6F5FC2
:100250007F4F6E177F07C8F283E090E0DACFAF924E
:10026000BF92CF92DF92EF92FF920F931F93CF93A3
:10027000DF936C017B018B01040F151FEB015E0105
:10028000AE18BF08C017D10759F06991D601ED919A
:10029000FC910190F081E02DC6010995892B79F739
:1002A000C501DF91CF911F910F91FF90EF90DF90EB
:1002B000CF90BF90AF900895FC01538D448D252FB2
:1002C00030E0842F90E0821B930B541710F0CF96F0
:1002D000089501970895FC01918D828D981761F022
:1002E000A28DAE0FBF2FB11D5D968C91928D9F5F39
:1002F0009F73928F90E008958FEF9FEF0895FC0118
:10030000918D828D981731F0828DE80FF11D858DCA
:1003100090E008958FEF9FEF0895FC01918D228D5D
:10032000892F90E0805C9F4F821B91098F739927E2
:10033000089581E192E00E948D0121E0892B09F46A
:1003400020E0822F089580E090E0892B29F00E9420
:10035000990181110C9400000895FC01A48DA80F4F
:10036000B92FB11DA35ABF4F2C91848D90E00196F7
:100370008F739927848FA689B7892C93A089B18917
:100380008C91837080648C93938D848D981306C0B8
:100390000288F389E02D80818F7D80830895EF921C
:1003A000FF920F931F93CF93DF93EC0181E0888F2F
:1003B0009B8D8C8D98131AC0E889F989808185FFFF
:1003C00015C09FB7F894EE89FF896083E889F989A1
:1003D00080818370806480839FBF81E090E0DF91A3
:1003E000CF911F910F91FF90EF900895F62E0B8DF6
:1003F00010E00F5F1F4F0F731127E02E8C8D8E11B1
:100400000CC00FB607FCFACFE889F989808185FF17
:10041000F5CFCE010E94AD01F1CFEB8DEC0FFD2F9A
:10042000F11DE35AFF4FF0829FB7F8940B8FEA89D2
:10043000FB8980818062CFCFCF93DF93EC01888DE1
:100440008823B9F0AA89BB89E889F9898C9185FD4F
:1004500003C0808186FD0DC00FB607FCF7CF8C91DD
:1004600085FFF2CF808185FFEDCFCE010E94AD01E7
:10047000E9CFDF91CF91089590E0FC01E859FF4F5B
:100480002491FC01E255FF4F3491FC01E656FF4FE9
:10049000E491EE23C9F0222339F0233001F1A8F4CE
:1004A000213019F1223029F1F0E0EE0FFF1FE4585E
:1004B000FF4FA591B4918FB7F894EC91611126C0CC
:1004C00030953E233C938FBF08952730A9F0283004
:1004D000C9F0243049F7809180008F7D03C080915E
:1004E00080008F7780938000DFCF84B58F7784BDC5
:1004F000DBCF84B58F7DFBCF8091B0008F77809369
:10050000B000D2CF8091B0008F7DF9CF3E2BDACFF3
:100510003FB7F8948091FD019091FE01A091FF01F9
:10052000B091000226B5A89B05C02F3F19F0019697
:10053000A11DB11D3FBFBA2FA92F982F8827BC013D
:10054000CD01620F711D811D911D42E0660F771F65
:10055000881F991F4A95D1F708958F929F92AF9265
:10056000BF92CF92DF92EF92FF924B015C010E940B
:1005700088026B017C010E9488026C197D098E093A
:100580009F09683E734081059105A8F321E0821A16
:100590009108A108B10888EEC80E83E0D81EE11CBE
:1005A000F11C81149104A104B10429F7FF90EF908C
:1005B000DF90CF90BF90AF909F908F900895CF9392
:1005C000DF93EC0160E088810E943C021E82DF9193
:1005D000CF910895CF93DF93EC0161E088810E9471
:1005E0003C0281E08E83DF91CF9108957F928F92BC
:1005F0009F92AF92BF92CF92DF92EF92FF920F93B2
:100600001F93CF93DF93782EEA01E091F403F091EA
:10061000F5033F968B010C5E1F4F43E4C42ED12C93
:10062000C801B6010E94CE0D5B0158E2E52EF12C07
:10063000C801B7010E94CE0D8B010F5F1F4F649759
:10064000CE01B6010E94CE0D4B01CE01B7010E9432
:10065000CE0DEB01219624513109C901B6010E944A
:10066000CE0D6B01C901B7010E94CE0D6F5F7F4FA8
:1006700020E030E0A901A0E0808191818A159B05EE
:1006800070F10817190758F182819381881599052F
:1006900018F1C817D90728F1220F331F441F551F1F
:1006A00021603496AF5F7A12E7CF2093F003309346
:1006B000F1034093F2035093F30381E0DF91CF9174
:1006C0001F910F91FF90EF90DF90CF90BF90AF9070
:1006D0009F908F907F9008958C159D0510F480E079
:1006E000EDCF68177907D8F3220F331F441F551F2A
:1006F000D8CFFC0101900020E9F73197AF01481BEA
:10070000590BBC0181E192E00C942F01CF93DF9350
:100710000E947903EC0182E191E00E9479038C0F41
:100720009D1FDF91CF910895CF92DF92EF92FF92BC
:100730000F931F93CF93DF938091AE02833059F0D4
:100740008AE090E0DF91CF911F910F91FF90EF90A1
:10075000DF90CF9008958091EA01811107C085E173
:1007600091E00E94860381E08093EA0187EB92E0AA
:100770009093F8018093F7018091B60290E09093F6
:10078000FA018093F9012091B502222321F0109201
:10079000B5021092B6022091B5022093FB0110928F
:1007A000EF011092F0011092F1011092F20120E895
:1007B0002093EF032091B9023091BA0226583109F3
:1007C0002C35310508F065C08430910539F58091EC
:1007D000BB029091BC028197489708F05AC0809163
:1007E000BD029091BE020897089708F052C010927F
:1007F000F3018FEF9FEFDC018093EF019093F00105
:10080000A093F101B093F20181E88093EF0388E0B7
:1008100090E09093E6038093E50324C1843491052E
:10082000C1F58091BB029091BC02825491098F97CF
:1008300080F520E332E040E956E060E372E080E2D8
:100840000E94F602882329F1E091F701F091F80166
:10085000EA57FF4F8081918108970897D0F48091E3
:10086000F0039091F103A091F203B091F303809310
:10087000EF019093F001A093F101B093F20180E2B7
:100880008093F30188E090E09093EC018093EB017A
:10089000C0CFC091F901D091FA01CA31D10508F455
:1008A00059C0E091F701F091F801808191810A9798
:1008B00098F41092F3018FEF9FEFDC018093EF012A
:1008C0009093F001A093F101B093F20181E0809345
:1008D000EF0383E190E09DCF8281938184974A97D3
:1008E000C8F563E070E040E080E090E0DC01248146
:1008F0003581285031092830310560F5268137814E
:1009000022313105E0F02032310520F5880F991FA2
:10091000AA1FBB1F81604F5F6E5F7F4F34966C17BD
:100920007D0728F34093F3018093EF019093F0014A
:10093000A093F101B093F20183E190E0A5CF2930BB
:10094000310540F02131310528F4880F991FAA1F85
:10095000BB1FE1CF81E08093100289E793E0909381
:100960000E0280930D0210920F020E94A9008130A6
:1009700009F0ABC0C12CD12C7601C0E0E091F403AA
:10098000F091F5039085809110028917E0F40E94A0
:10099000A900D82F0E94A900D1110BC0813009F005
:1009A00094C0CC0CDD1CEE1CFF1C6894C0F8CF5F1B
:1009B000E5CFD13009F089C0811187C0CC0CDD1C96
:1009C000EE1CFF1CF4CF8C2F90E09093EE038093ED
:1009D000ED03C092F003D092F103E092F203F092A3
:1009E000F3038C2D8F7390E09093EA038093E903D7
:1009F000960146E0369527954A95E1F72F71332702
:100A00003093E8032093E703960122273071232BCC
:100A100031F4805C9F4F9093EA038093E90380E870
:100A2000D3FC88E88093EF0381859285833E9840CC
:100A300028F48091EF0381608093EF038FE090E0D2
:100A40009093E6038093E503C093F301C092EF0116
:100A5000D092F001E092F101F092F2019093EC015A
:100A60008093EB018091EF019091F001A091F10151
:100A7000B091F2012091AE02233011F41092AE0237
:100A8000853B2AE492072FEFA207B10509F4E5C2DE
:100A900008F0A9C28F3C20E392072FEFA207B1050F
:100AA00009F4D5C208F08FC28F3E20E192072FEFE4
:100AB000A207B10509F4C5C2873E9841AF4FB10501
:100AC00009F03ECE82E090E03DCEE091F403F0915B
:100AD000F5038385948588974D9708F046C08585F2
:100AE00096850C970B9708F040C083E08093100226
:100AF0008CEB91E090930E0280930D0210920F0206
:100B00000E94A900813089F50E94A900C82F811197
:100B10002CC0C12CD12C7601E091F403F091F503A7
:100B2000908580911002891708F069C00E94A90081
:100B3000182FC330B1F00E94A900D82FC33021F480
:100B40000E94A900D81311C0113009F04EC0D11174
:100B50000CC0CC0CDD1CEE1CFF1C6894C0F8CF5FF1
:100B6000DBCF0E94A900181731F38091F901909111
:100B7000FA018236910508F48BC0E091F701F091FB
:100B8000F80182819381C397859708F081C08481A1
:100B900095814A97439708F07BC020EB31E040E114
:100BA00055E060EB71E08CE20E94F602882309F4C4
:100BB0006FC080E38093F3018091F0039091F10383
:100BC000A091F203B091F3038093EF019093F001B1
:100BD000A093F101B093F20182E090E29093EE01D4
:100BE0008093ED0189E090E04FCE1111BECFD1305E
:100BF00009F0BBCFCC0CDD1CEE1CFF1CB0CF8C2F42
:100C000090E09093EE038093ED03C092F003D092B6
:100C1000F103E092F203F092F3038D2D2C2D30E0DE
:100C2000C432F8F480E88093EF033093EA03209312
:100C3000E9038D2D90E09093E8038093E703E0FEB5
:100C400003C088E88093EF038185928583379A40BB
:100C500028F48091EF0381608093EF0380E190E0BE
:100C6000EFCE90E99093EF03D7FE03C098E99093FD
:100C7000EF033093EA032093E9038F7790E090939A
:100C8000E8038093E703F092EC03E092EB03DCCF00
:100C90008091F9019091FA01CC97E1F5E091F7018B
:100CA000F091F80182819381865891098D359105E3
:100CB00088F584819581CE978C9760F526E232E0A5
:100CC0004CE256E064EF71E08CE10E94F60288236A
:100CD00009F1E091F701F091F801EA58FF4F8081A6
:100CE000918107970897B0F48091F0039091F103F8
:100CF000A091F203B091F3038093EF019093F00180
:100D0000A093F101B093F2018CE18093F30186E0AE
:100D100090E0BACD4091F9015091FA01E091F701CC
:100D2000F091F801828193814232510519F59C01BD
:100D30002850310927303105E8F4DF01AE5BBF4FA1
:100D40002D913C91285031092730310598F41092AB
:100D5000F3018FEF9FEFDC018093EF019093F0019F
:100D6000A093F101B093F20181E08093EF0385E05D
:100D700090E04FCD8D57910987359105A0F544320C
:100D8000510588F184819581CE978C9760F52EE08E
:100D900032E04AE256E06EE072E080E10E94F60244
:100DA000882309F1E091F701F091F801EA5BFF4F28
:100DB0008081918108970797B0F48091F00390911A
:100DC000F103A091F203B091F3038093EF019093AC
:100DD000F001A093F101B093F20180E18093F3015F
:100DE00085E090E051CDE091F701F091F80182812A
:100DF0009381825491098F9708F04FC08091F90137
:100E00009091FA0184309105F1F484819581819764
:100E1000489708F042C08681978108970897E8F5BF
:100E20001092F3018FEF9FEFDC018093EF0190931D
:100E3000F001A093F101B093F20181E08093EF0300
:100E400081E190E0E6CC8434910538F1848195818C
:100E5000815491098F9708F529E232E04BE756E07B
:100E600069E272E080E20E94F6028823B1F080918C
:100E7000F0039091F103A091F203B091F3038093FA
:100E8000EF019093F001A093F101B093F20180E2A1
:100E90008093F30181E190E0F7CCE091F403F091CD
:100EA000F5038085823279F5E091F701F091F80140
:100EB000828193810497059730F5848195810B9702
:100EC0000A9708F52CE033E04CE157E064E071E06C
:100ED0008FE00E94F6028823B1F08091F003909198
:100EE000F103A091F203B091F3038093EF0190938B
:100EF000F001A093F101B093F2018FE08093F30130
:100F000083E090E0C1CCE090F901F090FA0186E036
:100F1000E816F10408F44FC0E091F701F091F801F0
:100F2000329625EC3DE94CE151E8C3E0D0E00AE01F
:100F30008481958161917191089F6001099FD00C16
:100F40001124DB0113E0AA0FBB1F1A95E1F710E093
:100F5000CA16DB0678F0069FD001079FB00D11245A
:100F600063E0880F991F6A95E1F712E0A817B907A7
:100F700008F011E063E971E080E091E00E94820DE9
:100F80009B01AC0121272196CE15DF0589F6209320
:100F9000EF013093F0014093F1015093F20180E2B0
:100FA0008093F3011092EC011092EB011092E60392
:100FB0001092E50357CD8091AE02833009F0C0CB8B
:100FC0001092AE02BDCB873C28E392072FEFA20719
:100FD000B105A1F18D3B9244AF4FB10509F0B0CB03
:100FE00087E090E0AFCB873928E692072FEFA20782
:100FF000B10581F180F48D3A22E592072FEFA20727
:10100000B105C9F0853A9A45AF4FB10509F098CBC3
:1010100086E090E097CB85382AE792072FEFA2076A
:10102000B10591F08D35924AAF4FB10509F088CBEB
:101030008BE090E087CB89E090E084CB85E090E086
:1010400081CB84E090E07ECB83E090E07BCB81E0BD
:1010500090E078CB90E080E075CB88E090E072CBB8
:101060001F920F920FB60F9211242F933F934F931D
:101070005F936F937F938F939F93AF93BF93EF9300
:10108000FF9381E192E00E94AD01FF91EF91BF914A
:10109000AF919F918F917F916F915F914F913F9110
:1010A0002F910F900FBE0F901F9018951F920F92C7
:1010B0000FB60F9211242F938F939F93EF93FF936B
:1010C000E0912102F09122028081E0912702F091CB
:1010D000280282FD1BC0908180912A028F5F8F734E
:1010E00020912B02821741F0E0912A02F0E0EF5E9E
:1010F000FD4F958F80932A02FF91EF919F918F91E1
:101100002F910F900FBE0F901F9018958081F4CFF4
:101110001F920F920FB60F9211242F933F938F932C
:101120009F93AF93BF938091010290910202A0918F
:101130000302B09104023091FC0123E0230F2D370C
:1011400058F50196A11DB11D2093FC018093010269
:1011500090930202A0930302B09304028091FD01D8
:101160009091FE01A091FF01B09100020196A11D96
:10117000B11D8093FD019093FE01A093FF01B093F8
:101180000002BF91AF919F918F913F912F910F904E
:101190000FBE0F901F90189526E8230F0296A11DF1
:1011A000B11DD2CF1F920F920FB60F9211242F9321
:1011B0003F934F935F936F937F938F939F93AF93DF
:1011C000BF93EF93FF93E091B002F091B102908151
:1011D0008091B20298232091B3023091B4022F3F44
:1011E000320731F02F5F3F4F3093B4022093B302A8
:1011F0008091AE02811135C0911116C02091B302C9
:101200003091B4022536310558F01092B502309372
:10121000B8022093B70281E08093B6028093AE02B9
:101220001092B4021092B30280910204882341F01C
:1012300080910104911161C061E0811161C02D9A1A
:10124000FF91EF91BF91AF919F918F917F916F919E
:101250005F914F913F912F910F900FBE0F901F9074
:1012600018958091AE028130A1F49923E9F2E091C2
:10127000B6028E0F8093B602F0E0EE0FFF1FE2552C
:10128000FD4F2091B3023091B4023287218782E072
:10129000C5CF8091AE02823039F5911119C0E0912D
:1012A000B60281E0E43620F08093B50283E0B6CF49
:1012B0008E0F8093B602F0E0EE0FFF1FE255FD4F58
:1012C0002091B3023091B4023287218781E0A6CF0A
:1012D0002091B3023091B4022536310508F4A4CF31
:1012E00083E08093AE02A0CF8091AE02833009F0FC
:1012F0009BCF992309F494CF97CF882321F060E006
:101300000E943C029DCF2D989BCFCF93DF93E1E1CC
:10131000F2E01382128288EE93E0A0E0B0E08483D2
:101320009583A683B78384E091E09183808385ECE5
:1013300090E09587848784EC90E09787868780EC9F
:1013400090E0918B808B81EC90E0938B828B82EC90
:1013500090E0958B848B86EC90E0978B868B118E3A
:10136000128E138E148E8091230490912404A091E8
:101370002504B091260480931F0490932004A09329
:101380002104B0932204CEEAD2E0D0931304C09398
:10139000120480E00E948C00E1E0F4E010821182EF
:1013A000D093F503C093F40382E00E948C00EEED2D
:1013B000F3E089E090E091838083138212821582AA
:1013C0008091AB039091AC031682E7EDF3E027E048
:1013D00030E0318320831382128215821682E0ED81
:1013E000F3E028E030E031832083138212821582FB
:1013F0001682E9ECF3E026E030E0318320831382AB
:101400001282158204969093AC038093AB031682EC
:1014100027E0EEEDF3E0ADEAB3E001900D922A95FE
:10142000E1F727E0E0EDF3E0A4EBB3E001900D92EB
:101430002A95E1F727E0E7EDF3E0ABEBB3E00190AD
:101440000D922A95E1F727E0E9ECF3E0A2ECB3E096
:1014500001900D922A95E1F79093AA038093A90336
:1014600084E1E1E8F3E0DF01982F1D929A95E9F716
:10147000E5E9F3E0DF011D928A95E9F71092800318
:1014800010927F03DF91CF910895CF93DF93CDB773
:10149000DEB7A3970FB6F894DEBF0FBECDBF78942A
:1014A00084B5826084BD84B5816084BD85B5826069
:1014B00085BD85B5816085BD80916E00816080931A
:1014C0006E00109281008091810082608093810083
:1014D0008091810081608093810080918000816093
:1014E000809380008091B10084608093B1008091EE
:1014F000B00081608093B00080917A008460809316
:101500007A0080917A00826080937A0080917A00DC
:10151000816080937A0080917A00806880937A005D
:101520001092C100ADEAB3E030E020E08091A90361
:101530009091AA038217930734F18D919C91119792
:101540009927FC01E255FF4F649186569F4FFC019D
:1015500084918823A1F090E0880F991FFC01EA573D
:10156000FF4F45915491FC01E458FF4F85919491B0
:101570008FB7F894FA019081962B90838FBF2F5FDD
:101580003F4F1796D3CFF89482E08093B0008093BA
:10159000B10084E68093B3008093B4001092B2004F
:1015A00084E0809370008091AE02833011F4109239
:1015B000AE0278948091AF0290E0FC01E255FF4FBB
:1015C000249186569F4FFC0184918823C9F090E0B6
:1015D000880F991FFC01EA57FF4F45915491FC0178
:1015E000E458FF4FA591B4919FB7F894FA01808118
:1015F0002095822380838C91E22FE823EC939FBF78
:10160000E0912102F091220282E08083E0911D02AC
:10161000F0911E021082E0911F02F09120028FECE7
:10162000808310922902E0912502F091260286E043
:101630008083E0912302F091240280818061808385
:10164000E0912302F0912402808188608083E09100
:101650002302F0912402808180688083E09123023C
:10166000F091240280818F7D808310920A02109273
:101670000902F12CE12C312C212C912C812C7AE0C7
:10168000472E512C612C712C8091090290910A02F5
:101690000597B9F58091230490912404A091250425
:1016A000B091260480931F0490932004A0932104FA
:1016B000B09322042FB7F894809101029091020216
:1016C000A0910302B09104022FBF80932304909352
:1016D0002404A0932504B093260440911F04509144
:1016E00020046091210470912204841B950BA60BA9
:1016F000B70B8093050290930602A0930702B09364
:1017000008028091090290910A028230910509F441
:10171000C3C090F40097D1F1019709F47DC080E037
:1017200090E0892B09F4B0CF0E949901882309F435
:10173000ABCF0E940000A8CF8430910509F4F5C01A
:1017400008F4DCC0059759F78091DD03811109C0C9
:101750008091D603811105C08091E403882309F4A8
:1017600065C10DEA13E0D12CC12C8091A9039091A1
:10177000AA038C159D050CF459C1C8010E94DF0213
:101780009FEFC91AD90A095F1F4FEFCF6DEAC62E26
:1017900063E0D62EB12CA12C0091A9031091AA03CD
:1017A0000A151B0584F0C6010E94EA0264E670E097
:1017B00080E090E00E94AD02FFEFAF1ABF0A27E081
:1017C000C20ED11CE9CF64EF71E080E090E00E948E
:1017D000AD0217FD13C0E7E0E09FC001E19F900D4F
:1017E000112483559C4F0E94DF0264E670E080E084
:1017F00090E00E94AD0201501109EBCF10928003DE
:1018000010927F0387ED93E00E94EA0281E090E06E
:1018100090930A02809309020E9494038A309105F2
:1018200009F47DCF8B30910579F4E5E0F0E0F09399
:101830000A02E093090289EC93E00E94DF02109211
:10184000800310927F036BCF20917F033091800340
:101850002F5F3F4FF901EE0FFF1FE158FC4F9183BF
:1018600080832A3031052CF43093800320937F034A
:1018700056CF1092800310927F0382E090E0909305
:101880000A028093090287ED93E00E94DF0289EC4F
:1018900093E00E94EA0243CF0E9494038A309105AC
:1018A00009F43DCF8B30910509F4BFCF20917F0320
:1018B00030918003F901EE0FFF1FEB56FC4F91832F
:1018C00080832F5F3F4F3093800320937F032A3024
:1018D00031050CF424CFE1E8F3E09AE02916310455
:1018E0000CF0F1C021913191828993892817390731
:1018F00009F0EFC02FEF221A320AEFCF8EED93E0FE
:101900000E94EA0281EB91E00E94860360ED77E09D
:1019100080E090E00E94AD0210920A02109209024B
:101920008EED93E00E94DF02FACE80ED93E00E94FC
:10193000EA0281EC91E00E94860360ED77E080E0AE
:1019400090E00E94AD02E1E8F3E0FBA3EAA3FAE035
:10195000EF16F1040CF053C0EAA1FBA1A190B190E5
:10196000FBA3EAA30B2C000CCC08DD08D7FE31C08A
:101970006DE281E192E00E94CF0122273327A90185
:101980002A193B094C095D0919A28E010F5D1F4FF1
:10199000CA01B901A30192010E94920D605DF80194
:1019A00062938F01211531054105510589F7011514
:1019B000110519F0C8010E947903F9E0EF16F1044E
:1019C00021F082EE91E00E9479032FEFE21AF20AF1
:1019D000BECFA601950119A28E010F5D1F4FCA014E
:1019E000B901A30192010E94920D605DF80162931A
:1019F0008F01211531054105510589F7D8CF86EEB4
:101A000091E00E94860386EE91E00E94860389ECB5
:101A100093E00E94EA0280ED93E00E94DF0282E000
:101A200090E090930A028093090279CE89EC93E0CA
:101A30000E94DF022091CB033091CC038091CE0332
:101A4000283C310514F5811124C080910502909144
:101A50000602280F391F3093CC032093CB0389EC67
:101A600093E00E94EA020E9494030B9709F057CE7C
:101A70001092800310927F0389EC93E00E94DF02B2
:101A800010920A02109209024ACE283EE3E03E0775
:101A90008CF4882379F08091050290910602280F3A
:101AA000391F3093CC032093CB0389EC93E00E9441
:101AB000DF02D9CF1092CC031092CB03F1E08F2735
:101AC0008093CE03D0CFE3E0F0E0F0930A02E093FE
:101AD0000902E1E8F3E08AE0881691040CF0ABCE4D
:101AE00021913191828993892817390721F49FEF39
:101AF000891A990AF0CF84E090E090930A028093CB
:101B0000090299CEDB018F939F930E94B40DBF9180
:101B1000AF91A29F800D911DA39F900DB29F900D3C
:101B200011240895A1E21A2EAA1BBB1BFD010DC0B2
:101B3000AA1FBB1FEE1FFF1FA217B307E407F5077D
:101B400020F0A21BB30BE40BF50B661F771F881F59
:101B5000991F1A9469F760957095809590959B01EF
:101B6000AC01BD01CF0108950E94BF0DA59F900D4E
:101B7000B49F900DA49F800D911D11240895A29FE4
:101B8000B001B39FC001A39F700D811D1124911D51
:101B9000B29F700D811D1124911D0895AA1BBB1BBE
:101BA00051E107C0AA1FBB1FA617B70710F0A61B5D
:101BB000B70B881F991F5A95A9F780959095BC017E
:101BC000CD010895EE0FFF1F0590F491E02D0994CB
:101BD000F894FFCF00000000CF012F015C011C0230
:101BE0008D016B017F010D0A005468652066756EDA
:101BF0006374696F6E206465636F6465282672651F
:101C000073756C747329292069732064657072651B
:101C1000636174656420616E64206D6179206E6F0C
:101C20007420776F726B20617320657870656374C0
:101C3000656421204A75737420757365206465633B
:101C40006F6465282920776974686F757420612036
:101C5000706172616D6574657220616E6420497295
:101C600052656365697665722E6465636F64656449
:101C70004952446174612E3C6669656C646E616DA5
:101C8000653E202E00596F752061726520436F728A
:101C90007265637400596F7520617265206E6F7490
:101CA00020436F7272656374202020205472792063
:0E1CB000616761696E00202C2000202000007A
:107E0000112484B714BE81FFF0D085E080938100F7
:107E100082E08093C00088E18093C10086E0809377
:107E2000C20080E18093C4008EE0C9D0259A86E02C
:107E300020E33CEF91E0309385002093840096BBD3
:107E4000B09BFECF1D9AA8958150A9F7CC24DD24C4
:107E500088248394B5E0AB2EA1E19A2EF3E0BF2EE7
:107E6000A2D0813461F49FD0082FAFD0023811F036
:107E7000013811F484E001C083E08DD089C08234E0
:107E800011F484E103C0853419F485E0A6D080C0E4
:107E9000853579F488D0E82EFF2485D0082F10E0AE
:107EA000102F00270E291F29000F111F8ED06801E7
:107EB0006FC0863521F484E090D080E0DECF843638
:107EC00009F040C070D06FD0082F6DD080E0C81688
:107ED00080E7D80618F4F601B7BEE895C0E0D1E017
:107EE00062D089930C17E1F7F0E0CF16F0E7DF06D8
:107EF00018F0F601B7BEE89568D007B600FCFDCFD4
:107F0000A601A0E0B1E02C9130E011968C91119780
:107F100090E0982F8827822B932B1296FA010C0160
:107F200087BEE89511244E5F5F4FF1E0A038BF0790
:107F300051F7F601A7BEE89507B600FCFDCF97BE46
:107F4000E89526C08437B1F42ED02DD0F82E2BD052
:107F50003CD0F601EF2C8F010F5F1F4F84911BD097
:107F6000EA94F801C1F70894C11CD11CFA94CF0C13
:107F7000D11C0EC0853739F428D08EE10CD085E9AC
:107F80000AD08FE07ACF813511F488E018D01DD067
:107F900080E101D065CF982F8091C00085FFFCCF94
:107FA0009093C60008958091C00087FFFCCF809118
:107FB000C00084FD01C0A8958091C6000895E0E648
:107FC000F0E098E1908380830895EDDF803219F02E
:107FD00088E0F5DFFFCF84E1DECF1F93182FE3DFCA
:107FE0001150E9F7F2DF1F91089580E0E8DFEE27F6
:047FF000FF270994CA
:027FFE00040479
:00000001FF
